:020000040800F2
:10000000100600209D010008E30C0008090C000800
:10001000E10C0008DB020008C51300080000000026
:1000200000000000000000000000000013100008A5
:10003000DD02000800000000111000081510000883
:10004000B7010008B7010008B7010008B7010008B0
:10005000B7010008B7010008B7010008B7010008A0
:10006000B7010008B7010008B7010008B701000890
:10007000B7010008B7010008B7010008B701000880
:10008000B7010008B7010008B7010008B701000870
:10009000B7010008B7010008B7010008B701000860
:1000A000B7010008B7010008B7010008B701000850
:1000B000B7010008B7010008B7010008B701000840
:1000C000B7010008B7010008B7010008B701000830
:1000D000B7010008B7010008B7010008B701000820
:1000E000B7010008B7010008B7010008B701000810
:1000F000B7010008B7010008B7010008B701000800
:10010000B7010008B7010008B7010008B7010008EF
:10011000B7010008B7010008B7010008B7010008DF
:10012000B7010008B7010008B7010008B7010008CF
:10013000B7010008B7010008B7010008B7010008BF
:10014000B7010008B7010008B7010008B7010008AF
:10015000B7010008B7010008B7010008B70100089F
:10016000B7010008B7010008B7010008B70100088F
:10017000B7010008B7010008B7010008000000003F
:10018000B7010008B7010008DFF80CD000F068F8EC
:1001900000480047E9130008100600200648804781
:1001A00006480047FEE7FEE7FEE7FEE7FEE7FEE75C
:1001B000FEE7FEE7FEE7FEE7C5100008890100083C
:1001C0002DE9F05F0546002092469B46884606468C
:1001D000814640241BE0284641464746224600F01F
:1001E0002FF853465A46C01A914110D3114618466B
:1001F000224600F016F82D1A67EB01084F462246FA
:100200000120002100F00DF817EB00094E41201EDF
:10021000A4F10104DFDC484631462A464346BDE8E6
:10022000F09F202A04DB203A00FA02F100207047F8
:100230009140C2F1200320FA03F319439040704724
:10024000202A04DB203A21FA02F00021704721FA2B
:1002500002F3D040C2F12002914008431946704792
:10026000064C074D06E0E06840F0010394E8070003
:1002700098471034AC42F6D3FFF78AFFB01A000853
:10028000D01A000870B58C1810F8015B15F0070340
:1002900001D110F8013B2A1106D110F8012B03E01F
:1002A00010F8016B01F8016B5B1EF9D12B0705D427
:1002B0000023521E0DD401F8013BFAE710F8013B70
:1002C000CB1A921C03E013F8015B01F8015B521E8C
:1002D000F9D5A142D8D3002070BDFEE770470000D9
:1002E00070B5044600F0F0F80546601C02D00448E2
:1002F0000078044400F0E8F8401BA042FAD370BD37
:10030000C40100202DE9F84FDFF87CB100224FF046
:1003100001084FF0030A4FF00F090BF1040E00BF64
:100320000B6808FA02F42340A3426ED14D68022DF7
:1003300001D0122D0ED1D50800EB850CDCF8205031
:100340005607F70E09FA07F6B5430E69BE402E436D
:10035000CCF82060066855000F790AFA05FC07F012
:10036000030726EA0C06AF40374307604E68012EAC
:1003700005D0022E03D0112E01D0122E0ED1866888
:10038000CF6826EA0C06AF40374387604668A6432D
:100390000C79C4F30014944034434460C6688C68FC
:1003A00026EA0C06AC403443C4604C68E40065D5D2
:1003B000364C256845F480452560246822F0030505
:1003C00004F480440094324C2E19D6F8084895075E
:1003D0002F0F09FA07F5AC432E4DA84201D1002595
:1003E00024E02D4DA84201D101251FE02B4DA8424C
:1003F00001D102251AE02A4DA84201D1032515E0BA
:10040000284DA84202D1042510E037E0264DA8422D
:1004100001D105250AE0254DA84201D1062505E0B8
:10042000234DA84201D1072500E00825BD40254302
:10043000C6F80858DBF800405D464E689C43F6035A
:1004400000D51C432C60DEF8004075464E689C4386
:10045000B60300D51C432C600B4D08352C684E6844
:100460009C43F60200D51C432C60074D0C352C68CC
:100470004E689C43B60200D51C432C60521C102AC7
:10048000FFF44EAFBDE8F88F003C01404438024015
:100490000030014000000240000402400008024019
:1004A000000C0240001002400014024000180240FC
:1004B000001C024042694A40426170470AB18161B2
:1004C00070470904FBE7000001488068704700009E
:1004D000C40100200248816802781144816070479D
:1004E000C40100200B4810B5016841F4007101609F
:1004F000016841F480610160016841F4807101602C
:10050000032000F075F8002000F006F800F024F851
:10051000002010BD003C024070B50D4D04464FF464
:100520007A712878B1FBF0F00A490968B1FBF0F064
:1005300000F0FBFA48B9102C07D200222146501EC9
:1005400000F036F800206C6070BD012070BD000026
:10055000C40100200000002010B5032000F048F87E
:10056000002211466FF00B0000F022F80022114625
:100570006FF00A0000F01CF8002211466FF009002D
:1005800000F016F800221146501F00F011F800226A
:100590001146101F00F00CF800221146901E00F0CA
:1005A00007F80022BDE810401146501EAFF300804E
:1005B000F0B40E4B1B680C46C3F30223C3F10705CE
:1005C000042D00D90425191D072901D2002300E0BC
:1005D000DB1E012606FA05F1491E214099409E4086
:1005E000761E16403143F0BC00F07CBB0CED00E001
:1005F000064900F0070208684FF6FF03184040EA7A
:100600000220034A10430860704700000CED00E030
:100610000000FA052DE9F0470E46050065D0DFF829
:100620001481D8F80000F7B200F00F00B04207D2F2
:1006300088F80070D8F8000000F00F00B04254D1E4
:1006400028683D4C810712D5400703D5206840F447
:10065000E05020602878000703D5206840F460400F
:1006600020602068A96820F0F00008432060287806
:10067000C0072DD0304968680839012812D00228F7
:1006800013D0032811D00968890700292DDA2168C1
:1006900021F0030101432160FFF716FF814641F27B
:1006A000883A0EE009688903EFE709688901ECE7F9
:1006B000FFF70AFFA0EB0901514502D90320BDE86D
:1006C000F0872068696800F00C00B0EB810FEFD173
:1006D000D8F80010404601F00F01B14207D9077069
:1006E000006800F00F00B04201D00120E7E7287851
:1006F000400705D52068E96820F4E05008432060F1
:100700002878000706D52068296920F4604040EA6F
:10071000C100206000F03CF82168084AC1F30311D1
:10072000515CC840064908600020FFF7F5FE002034
:10073000C5E70000003C024008380240A814000849
:100740000000002001480068704700000000002001
:100750000448054900680968044AC1F38221515CD4
:10076000C84070470000002008380240B814000854
:100770000448054900680968044AC1F34231515CE4
:10078000C84070470000002008380240B814000834
:10079000154810B5006810F00C02144813D0144925
:1007A000042A0FD0082A0ED10F4C241F2268236878
:1007B00002F03F025B0207D52068C0F38810A0FB5F
:1007C000010106E0084610BD2168C1F38811A1FBB4
:1007D00000010023FFF7F4FC2168C1F30141491C2B
:1007E0004900B0FBF1F010BD083802400024F400CD
:1007F00040787D012DE9F84F050076D02878DFF8A4
:10080000F8B2BE4CC00749D0DBF800105846C1F31F
:100810008101012908D00068C0F3810002280AD1B3
:10082000201D0068400206D52068800336D5686820
:100830000028E2D032E06868B0F5803F10D0B0F513
:10084000A02F206810D020F480302060206820F491
:10085000802020606868A0B1FFF736FE06460CE0F5
:10086000206840F48030F4E740F480202060F7E70F
:10087000FFF72AFE801B642873D820688003F7D511
:100880000CE0FFF721FE064605E000BFFFF71CFE67
:10089000801B6428F0D820688003F7D42878DFF81C
:1008A000608280074FF000093ED5DBF80010584603
:1008B00011F00C0F09D00068C0F3810002280BD1A1
:1008C0008D48001F0068400206D42068800715D5B7
:1008D000E868012809D111E0E868B8B10120C8F83A
:1008E0000000FFF7F1FD064605E002E1FFF7ECFD31
:1008F000801B0228C0D820688007F7D520682969A6
:1009000020F0F80040EAC10020600DE0C8F8009037
:10091000FFF7DAFD064604E0FFF7D6FD801B02284C
:100920001FD820688007F7D42878000722D5724E98
:10093000744869696C3671B101210160FFF7C4FD2B
:10094000074604E0FFF7C0FDC01B022809D8306845
:100950008007F7D50EE0C0F80090FFF7B5FD074619
:1009600005E083E0FFF7B0FDC01B02287ED83068A9
:100970008007F7D42878400768D5DFF87CA10027E6
:100980000AF1380ADAF80000C0000BD4DAF80010D7
:1009900041F08051CAF80010DAF80000012700F099
:1009A00080500090584E3068C00510D4306840F434
:1009B00080703060FFF788FD009005E0FFF784FD50
:1009C0000099401A022851D83068C005F6D54A4E21
:1009D000A868683601280FD00528306810D020F0AC
:1009E00001003060306820F004003060A868B8B1C1
:1009F000FFF76AFD00900FE0306840F00100F4E777
:100A000040F004003060F7E7FFF75EFD0099411AFF
:100A100041F28830814264D830688007F4D50EE016
:100A2000FFF752FD009007E0FFF74EFD0099411AD5
:100A300041F28830814254D830688007F4D42FB115
:100A4000DAF8001021F08051CAF80010A869C0B38C
:100A5000DBF80010C1F3810102294AD00228484680
:100A600007D0C8F86000FFF72FFD00E039E0054629
:100A70003AE04746C8F86000FFF726FD064604E066
:100A8000FFF722FD801B02282BD820688001F7D4B5
:100A9000D5E907010843A96A1C4A490802EB01414C
:100AA0006A6A41EA8211084395F82C1040EA016114
:100AB0001148001F016001203866FFF705FD05465B
:100AC00005E014E0FFF700FD401B022809D820686C
:100AD0008001F7D50BE000BFFFF7F6FC401B0228B2
:100AE00002D90320BDE8F88F20688001F4D40020EB
:100AF000F8E70120F6E7000008380240003802401D
:100B000000004742800E4742007000400000FFFF97
:100B10004FF0E0210428086903D020F004000861A8
:100B2000704740F00400FAE7704710B5401EB0F17E
:100B3000807F01D3012010BD4FF0E02460610F21C0
:100B4000601700F0CFF80020A0610720206100208E
:100B500010BD10B5FFF7E8FF10BD70B5040004D05C
:100B600094F83900002510B106E0012070BD84F82A
:100B70003850204600F022F8242084F839002068FC
:100B8000C16821F40051C160204600F0C5FA206818
:100B9000016921F4904101612068416921F02A0135
:100BA00041612068C16841F40051C160E5632020C3
:100BB00084F8390084F83A00002070BD00B5006860
:100BC0000E4987B0884217D10D48016841F01001E5
:100BD00001600068694600F0100005904FF4C060A5
:100BE0000090022001900120029003200390072032
:100BF00004900448FFF786FB07B000BD00100140D9
:100C00004438024000000240FEE70000F0B51E48F4
:100C100087B00024016841F020010160016801F003
:100C200020010591016841F080010160016801F037
:100C300080010591016841F0010101600068134ED7
:100C400000F001004FF4C0650590002229463046AF
:100C5000FFF734FC0E4F0022AE213846FFF72EFC82
:100C600000950125CDE90154694630460394FFF70C
:100C700049FBAE200090CDE9015469463846039403
:100C8000FFF740FB07B0F0BD3038024000140240CF
:100C9000000002400D4810B50B4901604FF4E131EE
:100CA0004160002181600C22C160C0E904128161B1
:100CB000C161FFF752FF002805D0BDE81040422176
:100CC00003A000F080BB10BD00100140D001002047
:100CD0002E2E2F5372632F75736172742E63000072
:100CE000FEE770470907090E002806DA00F00F003A
:100CF00000F1E02080F8141D704700F1E02080F83A
:100D00000014704770B5002404F1B000C0B2002197
:100D100000F046F90021084600F042F900211020B9
:100D200000F03EF900250121002000F039F96D1C8A
:100D3000EDB2802DF7D3641CE4B2082CE4D370BD6F
:100D400010B500218D2000F02BF90021142000F0B7
:100D500027F90021BDE81040AF2000F021B90000C4
:100D600010B5494C012204212046FFF7A7FB64205F
:100D7000FFF7B6FA002204212046FFF79FFBC820A8
:100D8000FFF7AEFA012204212046FFF797FB00216E
:100D9000AE2000F005F90021084600F001F900211D
:100DA000102000F0FDF80021402000F0F9F80021AB
:100DB000812000F0F5F80021CF2000F0F1F80021AB
:100DC000A12000F0EDF80021C82000F0E9F8002192
:100DD000A62000F0E5F80021A82000F0E1F80021AD
:100DE0003F2000F0DDF80021D32000F0D9F80021E9
:100DF000084600F0D5F80021D52000F0D1F80021F8
:100E0000802000F0CDF80021D92000F0C9F80021A1
:100E1000F12000F0C5F80021DA2000F0C1F800212F
:100E2000122000F0BDF80021DB2000F0B9F800210D
:100E3000402000F0B5F80021202000F0B1F800219A
:100E4000022000F0ADF800218D2000F0A9F800216B
:100E5000142000F0A5F80021A42000F0A1F8002142
:100E6000A62000F09DF80021AF2000F099F80021A5
:100E7000AF2000F095F8FFF745FF0021BDE81040D6
:100E8000084600F003B800000000024010B5044618
:100E9000B031C8B2002100F083F8102040EA1410ED
:100EA000002100F07DF804F00F00BDE8104040F094
:100EB0000100002100F074B82DE9F04115460E46FE
:100EC0000746FFF7E3FF0F48002400EB85150121DB
:100ED000285D00F065F8641CE4B2102CF7D3761C92
:100EE000F1B23846FFF7D2FF00242819012190F80B
:100EF000200000F055F8641CE4B2102CF5D3BDE8D6
:100F0000F0810000040000202DE9F041203A002487
:100F10000D468046D7B27F2803D900208D1C80461D
:100F2000EDB22946FFF7B2FF0F4E00BF04EB0710EA
:100F30000121305C00F034F8641CE4B2082CF5D3D5
:100F40006D1CE9B24046FFF7A1FF002404EB071037
:100F500030440121007A00F023F8641CE4B2082C2C
:100F6000F4D3BDE8F0810000C01400082DE9F04181
:100F700017460E46044600250CE031462046FFF792
:100F8000C3FF0834E4B2782C02D90024B61CF6B2B0
:100F90006D1CEDB27A5D002AEFD1BDE8F081000052
:100FA00070B51A4E054609B1012200E00022022167
:100FB0003046FFF783FA002208213046FFF77EFA19
:100FC0000024002220213046FFF778FA280601D5B8
:100FD000012200E0002280213046FFF76FFA012253
:100FE00020213046FFF76AFA6806641C050EE4B259
:100FF000082CE6D3012208213046FFF75FFA30467D
:10100000BDE8704001220221FFF758BA00000240FB
:101010007047704710B5FFF75DFABDE81040FFF765
:1010200098BD000030B5254893B00025016841F017
:1010300080510160006800F08050119020480168E4
:1010400041F4804101600068022400F48040119066
:101050000120039010200490009406940820CDE90C
:101060000750A820CDE9090404200B906846FFF73B
:10107000C1FB00B1FEE70CA90F2081E831004FF45D
:10108000A0500F904FF48050109005210CA8FFF74E
:10109000C1FA00B1FEE7FFF755FB4FF47A71B0FBE0
:1010A000F1F0FFF742FD0420FFF732FD0022114668
:1010B000501EFFF77DFA13B030BD000040380240EB
:1010C000007000401048016841F4700101600F4851
:1010D000016841F0010101600C4A002108321160F1
:1010E00002680B4B1A400260031D0A4A1A6002682C
:1010F00022F48022026005480C3001600249580643
:10110000803908607047000088ED00E00038024038
:10111000FFFFF6FE103000242DE9F0410446006880
:10112000016921F44052E168114301612168C868F6
:1011300049F20C6290432369A268E5691A43636926
:101140002B431A430243CA602168486920F4407265
:10115000A06910434861E1696425B1F5004F9748E3
:10116000974A21684FF032083FD0914201D0814226
:101170007CD1FFF7FDFA00EBC00101EB00106168C4
:101180008900B0FBF1F6FFF7F3FA00EBC00101EBC9
:10119000001061688900B0FBF1F0B0FBF5F06FF072
:1011A0001801484306EB800108EB0110B0FBF5F095
:1011B00000F0F006FFF7DCFA00EBC00101EB0010D5
:1011C00061688900B0FBF1F0B0FBF5F006EB0016AA
:1011D000FFF7CEFA00EBC00101EB00106168890057
:1011E000B0FBF1F7FFF7C4FAD2E0914201D081429F
:1011F0003DD1FFF7BDFA00EBC00101EB00106168C3
:101200004900B0FBF1F0B0FBF5F00601FFF7B0FAD2
:1012100000EBC00101EB001061684900B0FBF1F781
:10122000FFF7A6FA00EBC00101EB0010616849006E
:10123000B0FBF1F0B0FBF5F06FF01801484307EB9D
:10124000800108EBC100B0FBF5F000F0F80006EB00
:101250004006FFF78DFA00EBC00101EB001061685A
:101260004900B0FBF1F7FFF783FA3CE055E0FFF7E8
:101270006FFA00EBC00101EB001061684900B0FBA0
:10128000F1F0B0FBF5F00601FFF762FA00EBC001E8
:1012900001EB001061684900B0FBF1F7FFF758FA65
:1012A00000EBC00101EB001061684900B0FBF1F0F8
:1012B000B0FBF5F06FF01801484307EB800108EB35
:1012C000C100B0FBF5F000F0F80006EB4006FFF7B8
:1012D0003FFA00EBC00101EB001061684900B0FB70
:1012E000F1F7FFF735FA00EBC00101EB0010616880
:1012F0004900B0FBF1F0B0FBF5F06FF01801484386
:1013000007EB800108EBC100B0FBF5F000F007002F
:10131000216830448860BDE8F081FFF719FA00EBDE
:10132000C00101EB001061688900B0FBF1F6FFF726
:101330000FFA00EBC00101EB001061688900B0FBFF
:10134000F1F0B0FBF5F06FF01801484306EB8001B7
:1013500008EB0110B0FBF5F000F0F006FFF7F8F92C
:1013600000EBC00101EB001061688900B0FBF1F0F7
:10137000B0FBF5F006EB0016FFF7EAF900EBC00151
:1013800001EB001061688900B0FBF1F7FFF7E0F9AD
:1013900000EBC00101EB001061688900B0FBF1F0C7
:1013A000B0FBF5F06FF01801484307EB800108EB44
:1013B0000110B0FBF5F000F00F00A9E700140140A8
:1013C00000100140FEE7FEE702E008C8121F08C156
:1013D000002AFAD170477047002001E001C1121FB6
:1013E000002AFBD170470000FFF77CF8FFF71AFED8
:1013F000FFF70CFCFFF74EFCFFF7B2FCFFF7A0FC79
:101400001E4D4FF4007400211DA20846FFF7AEFDEB
:101410001FA202210020FFF7A9FD1FA20421002026
:10142000FFF7A4FD002206211046FFF745FD01222B
:1014300006211020FFF740FD022206212020FFF7A1
:101440003BFD032206213020FFF736FD0422062152
:101450004020FFF731FD052206215020FFF72CFD2B
:10146000062211466020FFF727FD21462846FFF798
:1014700021F86420FEF734FFC5E7000000140240A5
:1014800053544D3332463430375F4F4C454400009F
:10149000534B59504859000057616E6720486169A5
:1014A00070656E6700000000000000000000000092
:1014B00001020304060708090000000001020304FA
:1014C000000000000000000000000000000000001C
:1014D000000000F8000000000000003330000000B1
:1014E00000100C06100C06000000000000000000B8
:1014F00040C07840C0784000043F04043F0404002A
:10150000007088FC08300000001820FF211E000039
:10151000F008F000E018000000211C031E211E004E
:1015200000F00888700000001E21232419272110D4
:1015300010160E0000000000000000000000000077
:10154000000000E01804020000000007182040001E
:1015500000020418E000000000402018070000000E
:10156000404080F0804040000202010F0102020072
:10157000000000F0000000000101011F0101010056
:10158000000000000000000080B0700000000000BB
:101590000000000000000000000101010101010144
:1015A00000000000000000000030300000000000DB
:1015B00000000000806018040060180601000000B0
:1015C00000E010080810E000000F102020100F00AD
:1015D000001010F8000000000020203F2020000034
:1015E000007008080888700000302824222130008C
:1015F00000300888884830000018202020110E0094
:101600000000C02010F8000000070424243F24003C
:1016100000F80888880808000019212020110E0011
:1016200000E0108888180000000F112020110E0023
:1016300000380808C83808000000003F000000001B
:101640000070880808887000001C222121221C00DC
:1016500000E010080810E0000000312222110F0005
:10166000000000C0C000000000000030300000009A
:10167000000000800000000000008060000000000A
:101680000000804020100800000102040810200023
:10169000404040404040400004040404040404006E
:1016A0000008102040800000002010080402010003
:1016B000007048080808F000000000303601000003
:1016C000C030C828E810E0000718272423140B00B6
:1016D0000000C038E0000000203C23020227382030
:1016E00008F8888888700000203F202020110E0014
:1016F000C03008080808380007182020201008000B
:1017000008F808080810E000203F202020100F00F3
:1017100008F88888E8081000203F202023201800BF
:1017200008F88888E8081000203F20000300000027
:10173000C03008080838000007182020221E0200C8
:1017400008F808000008F808203F210101213F2087
:10175000000808F8080800000020203F20200000B2
:1017600000000808F8080800C08080807F000000A2
:1017700008F888C028180800203F200126382000DB
:1017800008F8080000000000203F20202020300042
:1017900008F8F800F8F80800203F003F003F20005C
:1017A00008F830C00008F808203F200007183F0064
:1017B000E01008080810E0000F10202020100F0093
:1017C00008F808080808F000203F21010101000086
:1017D000E01008080810E0000F18242438504F00CB
:1017E00008F8888888887000203F2000030C30208B
:1017F00000708808080838000038202121221C00C9
:10180000180808F8080818000000203F2000000011
:1018100008F808000008F808001F202020201F00FA
:101820000878880000C83808000007380E0100005A
:10183000F80800F80008F800033C0700073C030024
:10184000081868808068180820302C03032C30208A
:101850000838C800C83808000000203F20000000F9
:1018600010080808C8380800203826212020180051
:10187000000000FE020202000000007F4040400025
:10188000000C30C000000000000000010638C0005D
:1018900000020202FE000000004040407F00000005
:1018A000000004020202040000000000000000002A
:1018B0000000000000000000808080808080808028
:1018C0000002020400000000000000000000000010
:1018D00000008080808000000019242222223F2006
:1018E00008F8008080000000003F112020110E0049
:1018F0000000008080800000000E112020201100D8
:10190000000000808088F800000E112020103F2089
:101910000000808080800000001F2222222213000D
:10192000008080F0888888180020203F2020000058
:101930000000808080808000006B9494949360000D
:1019400008F8008080800000203F210000203F2018
:1019500000809898000000000020203F2020000018
:10196000000000809898000000C08080807F000008
:1019700008F8000080808000203F24022D302000E5
:10198000000808F8000000000020203F2020000090
:101990008080808080808000203F20003F20003FAA
:1019A0008080008080800000203F210000203F20B8
:1019B0000000808080800000001F202020201F0069
:1019C000808000808000000080FFA12020110E0098
:1019D0000000008080808000000E112020A0FF8089
:1019E000808080008080800020203F212000010036
:1019F000000080808080800000332424242419008B
:101A0000008080E0808000000000001F2020000097
:101A10008080000000808000001F202020103F20D8
:101A2000808080000080808000010E300806010068
:101A300080800080008080800F300C030C300F000D
:101A400000808000808080000020312E0E31200038
:101A5000808080000080808080818E701806010068
:101A600000808080808080000021302C2221300086
:101A700000000000807C020200000000003F4040A7
:101A800000000000FF00000000000000FF00000058
:101A90000002027C800000000040403F0000000087
:101AA0000006010102020404000000000000000022
:101AB000D01A000800000020D001000084020008B5
:101AC000901B0008D001002040040000D81300083B
:101AD000113324F41BF010012AFF050215F01B0F2F
:101AE00004012AFF0502130F18094040405F5555B5
:101AF0005575041A5F0C091121080C11200F0949B2
:101B000089790909090F201F112FFE02424ACA4A8A
:101B10000304134202FE000E14FF40504C434040A9
:101B20004F50505C40FF1BF888012AFF050215F852
:101B30001B1F08012A7F200B109F80E23B8082013F
:101B4000000916E2A2928A86828080041840807F73
:101B5000172424A4FEA3221B22CCAA0114150806D4
:101B600001FF2B0104010511FF02020258081010A9
:101B700010FF109008C3021108080F100444827F60
:101B800001808040432C10284681A02A0144710026
:040000050800018965
:00000001FF
