:020000040800F2
:10000000880A00200103000871110008FF10000891
:100010006D11000865100008ED12000800000000D6
:10002000000000000000000000000000490200087D
:1000300069100008000000009D02000881120008FD
:100040001B0300081B0300081B0300081B03000818
:100050001B0300081B0300081B0300081B03000808
:100060001B0300081B0300081B0300081B030008F8
:100070001B0300081B0300081B0300081B030008E8
:100080001B0300081B0300081B0300081B030008D8
:100090001B0300081B0300081B0300081B030008C8
:1000A0001B0300081B0300081B0300081B030008B8
:1000B0001B0300081B0300081B0300081B030008A8
:1000C0001B0300081B0300081B0300081B03000898
:1000D0001B0300081B0300081B0300081B03000888
:1000E0001B0300081B0300081B0300081B03000878
:1000F0001B0300081B0300081B0300081B03000868
:100100001B0300081B0300081B0300081B03000857
:100110001B0300081B0300081B0300081B03000847
:100120001B0300081B0300081B0300081B03000837
:100130001B0300081B0300081B0300081B03000827
:100140001B0300081B0300081B0300081B03000817
:100150001B0300081B0300081B0300081B03000807
:100160001B0300081B0300081B0300081B030008F7
:100170001B0300081B0300081B0300081B030008E7
:100180001B0300081B03000800F002F800F04CF805
:100190000AA090E8000C82448344AAF10107DA45E2
:1001A00001D100F041F8AFF2090EBAE80F0013F0E8
:1001B000010F18BFFB1A43F0010318472C1200006F
:1001C0004C120000103A24BF78C878C1FAD8520700
:1001D00024BF30C830C144BF04680C6070470000C1
:1001E0000023002400250026103A28BF78C1FBD840
:1001F000520728BF30C148BF0B607047642900F028
:100200000981732900F0E881002070471FB501F0D3
:10021000DFF89DE8030000F017FD00F0F7F91FBDBF
:1002200010B500F05CFA10BD00F0E6FA1146FFF7D9
:10023000EDFF01F06AF800F0D5FC03B4FFF7F0FF22
:1002400003BC00F073FE00002A4B19680868B0E890
:10025000F04F80F30988BFF36F8F4FF0000080F3F9
:10026000118870470000000006480068006880F3AD
:10027000088862B661B6BFF34F8FBFF36F8F00DFA0
:1002800000BF00BF08ED00E0DFF80C00016841F49A
:1002900070010160704700BF88ED00E0EFF3098056
:1002A000BFF36F8F134B1A681EF0100F08BF20EDBD
:1002B000108A20E9F04F106008B44FF0500080F32E
:1002C0001188BFF34F8FBFF36F8F01F027F84FF006
:1002D000000080F3118808BC19680868B0E8F04F86
:1002E0001EF0100F08BFB0EC108A80F30988BFF32E
:1002F0006F8F704700000020EFF30580704700000B
:100300000948804709480047FEE7FEE7FEE7FEE7A9
:10031000FEE7FEE7FEE7FEE7FEE7FEE704480549E5
:10032000054A064B70470000851200088901000845
:1003300088040020880A0020880600208806002003
:100340000FB4044910B503AA029800F049F910BC93
:100350005DF814FB800300202DE9F0410E460446B1
:10036000002020622046E168884730B3252805D068
:10037000D4E901219047206A401CF2E7E168204659
:1003800000278847050018D0A5F14100192802D898
:1003900020354FF400673246294620462760FFF794
:1003A0002DFF40B1012804D0F61D26F007060836BF
:1003B000D8E7361DD6E72846DAE7206ABDE8F0819F
:1003C00070B50C460546012A05D02878800600D570
:1003D000EA69002302E0012305E05B1C934202D29C
:1003E000E05C0028F9D1A869E618C01AA861286A5B
:1003F000184428622846AFF3008004E0D5E90121C3
:1004000014F8010B9047B442F8D32846AFF30080AC
:1004100070BD00002DE9F0410646002410687529E2
:10042000314616A510D0AFF30080002802DA404212
:1004300013A507E031688A0701D512A502E0490734
:1004400004D511A5012401E0AFF3008000210A22A8
:1004500006F1240709E0B0FBF2FCB0FBF2F302FB6B
:100460001C00303078541846491C0028F3D123462C
:100470002A463046BDE8F04100F02AB800000000EE
:100480002D0000002B0000002000000010B5431CD0
:1004900002E010F8011B71B18107FAD14FF001326F
:1004A00002C88C1A8C4314EAC211F9D0C01A0A0689
:1004B00003D0C01E10BDC01A10BD0A0401D0801E9A
:1004C00010BD0902FCD0401E10BD70477047704738
:1004D0002DE9F0470D4699469246044600F124085E
:1004E0000168880604D5E06921F01001216000E070
:1004F0000120A84201DD471B00E00027A1697A190D
:1005000002EB0900081AA0612078C00602D4204638
:10051000AFF30080002608E0D4E901211AF80600B4
:100520009047206A401C761C20624E45F4DB207800
:10053000C0060AD52046AFF3008006E0D4E90121C9
:1005400030209047206A401C2062381EA7F1010726
:10055000F4DC07E0D4E9012118F805009047206A8F
:10056000401C2062281EA5F10105F3DC2046AFF3F4
:1005700000802078000602D50220BDE8F087012027
:10058000FBE7000001694A1C02610878704700B56A
:100590008FB0CDE901310021059105497944CDE9BC
:1005A000031011466846FFF7D7FE0FB000BD0000EC
:1005B000E5FFFFFF10B5436913B1AFF3008001E021
:1005C000FFF7FEFE012010BD127800F124010A7031
:1005D00000224A700122EDE711684FF0FF32E9E78F
:1005E000074B70B50D467B44FFF7D1FF0446284604
:1005F00000F008F810B14FF0FF3070BD204670BD1C
:10060000070D0000007B00F08000704710B54248E5
:10061000542100F097F84148542100F093F84048E5
:10062000542100F08FF83F493B483C4A3F4B08605B
:100630003D490A603A491960531C0365481C10651E
:10064000012008653B48344A39A1784400F02EFA6D
:1006500020B9384878440A3800F0CDFA37482F4A94
:1006600035A1784400F022FA20B9344878440A3899
:1006700000F0C1FA32482A4A2FA1784400F016FA55
:1006800020B92F4878440A3800F0B5FA40232248B0
:10069000DC000021224600F0E6F920B1254878442C
:1006A000543800F0A8FA1D4822464023002100F0EB
:1006B000DAF920B121487844543800F09CFA1848FF
:1006C00022461023002100F0CEF9002806D01C4855
:1006D0007844BDE81040563800F08DBA10BD10487F
:1006E00070B5006D20F001040B4800F055FA0B487E
:1006F00000F052FA0A4800F04FFA09E0206D20F0AD
:100700000105204600F048FA204600F09AF82C46F1
:10071000002CF3D170BD00002C03002080030020CA
:10072000D40300203C0000204000002044000020B2
:10073000720000008C0D000077000000780D0000B2
:10074000640D00004FF0000200B513469446964633
:10075000203922BFA0E80C50A0E80C50B1F12001D4
:10076000BFF4F7AF090728BFA0E80C5048BF0CC082
:100770005DF804EB890028BF40F8042B08BF7047E0
:1007800048BF20F8022B11F0804F18BF00F8012B52
:1007900070470EB5CDE90001FFF778FE029069467B
:1007A0000120ABBE0EBD08B5694600900220ABBE6D
:1007B00008BD1FB58DE8070069460520ABBE04B033
:1007C00010BD1FB58DE80F0069460620ABBEF6E7E9
:1007D00008B5694600900920ABBE08BD1CB5CDE93F
:1007E000000169460A20ABBE1CBD704708B56946CA
:1007F00000900C20ABBE08BD754600F003FAAE4673
:1008000005006946534620F00700854618B020B51C
:10081000FFF784FDBDE820404FF000064FF00007D1
:100820004FF000084FF0000B21F00701AC46ACE898
:10083000C009ACE8C009ACE8C009ACE8C0098D4605
:10084000704770B50446051F00F0E2F90068002CFF
:1008500014BF446870BD002C18BFAC423CBF20469A
:100860006468F8D301680A18AA4218BF456003D12A
:100870002A6805461144016028684119A1421CBF3D
:100880006C6070BD6168696021680844286070BD53
:100890002DE9F04705460C46C86820F4201040F4C6
:1008A0008000C860800602D5084600F0FEFAE068C5
:1008B00041F282014FF0FF390140022903D0204666
:1008C00000F09CFAB5E000F42041B1F5004F0FD1E3
:1008D000C00306D56168E06A884200D808466060B7
:1008E00006E02069E06260606069FFF77FFFA06159
:1008F000A0680022EEB200280DDAE1688B050AD468
:10090000C043A06041F490302260E0606068411C08
:1009100061600670A5E0E0689046226040F40050F7
:10092000E060206968BB6069FFF752FF012704F1AE
:100930002405A0B1A08910F4407F08D0E06900F040
:10094000B2F9206118B1E06840F4006016E0E76198
:100950002561E06820F4407040F480600EE0E069BA
:1009600000F0A1F900282061F1D0E06840F40060B7
:1009700010F4407FE06002D140F48070E0602069B4
:100980006060E06825696FF0010AC1051FD56168E4
:10099000E06A884200D80846411B04D02246284617
:1009A00000F036FAF0BBE068010203D5E562C4E965
:1009B000015854E0691CE1626160E16940F48030F3
:1009C000491EC4E9021030462E70BDE8F0870102CE
:1009D00002D500F480320AE06068411C6160067054
:1009E000E0680A2E40F48030E06006D00022E16A20
:1009F0006068814203D90B4602E00122F7E7034613
:100A0000A7895B1B7F0503D4E7699F4200DDE2B144
:100A1000814200D80146E5620F1AC4E90158002B53
:100A200009DD00E005E022461946284600F0F0F90D
:100A300008B14846C9E747B1A069E5626560C01BD7
:100A4000A061E06840F01000E060E068000208D5B6
:100A50006168A069E562491B08446560A061504671
:100A6000B3E73046B1E770B5C468A50713D0650297
:100A700011D4B2F5807F09D0B2F5007F06D0B2F56F
:100A8000806F08D1012300F1240106E05D1E6FF0A4
:100A90007F46B54201D3012070BD0161C361416051
:100AA00024F470611143C160002070BD2DE9F04154
:100AB0000C4607461646104600F06EF82078611C7A
:100AC00061280AD0722802D077283CD102E00125A3
:100AD000002405E00225042402E0082448F202056F
:100AE00011F8010B2B2806D0622809D011F8010C4F
:100AF00074280AD00BE045F0030544F00204EFE748
:100B000045F0040544F00104EAE744F010043846D7
:100B10002146FFF73EFE411C15D000213161716076
:100B20004FF40071F560F1617061200704D5304623
:100B30000222002100F0E6F8306D40F0010030653F
:100B40003046BDE8F0810020FBE72DE9F0410D467D
:100B50000646104C206DC10704D0410804D020F097
:100B60000104F7E722460EE0542000F09CF807004D
:100B70000ED0206D47F0010108435421206538460E
:100B8000FFF7E0FD3A4629463046BDE8F0418DE7E3
:100B90000020D6E72C0300202DE9F04704464FF053
:100BA00000094FF0FF37C568D4E90486A80707D0CD
:100BB000204600F057F93046FFF7F5FD002802DA2D
:100BC0003846BDE8F087280502D54046FFF739FED4
:100BD0004C212046FFF7B6FD206D20F00100206576
:100BE0004846EEE710B50446AFF300802046BDE866
:100BF0001040FFF722BB10B500F07EF9BDE81040B1
:100C000000F074B9004870472804002070470000C5
:100C100000487047300400207047704770477047A5
:100C200038B504460A4600206946AFF30080002824
:100C300008BF38BD02460099204600F084F9012023
:100C400038BD012000F0D3B9F8B5AFF300800546F8
:100C500000200C46102000BF0646A819A0420DD95E
:100C6000324669460020AFF30080070008BF00F05D
:100C7000BEF90098A04218BF0546C419FFF7C8FF87
:100C800005600746F01D20F007004619284600F0D1
:100C900053F9B44208BFF8BDA21B31463868BDE81D
:100CA000F84000F050B970B50646FFF7B1FF05688F
:100CB00006F10B0020F00704B4429CBF002070BD79
:100CC0002B466A68BAB11068A04210D304F108013B
:100CD00088423CBF5068586007D351681019416082
:100CE0001168091B016058601460101D70BD134627
:100CF0005268002AE7D121462846FFF791FF0028D5
:100D0000DED170BD2DE9F041044616460D46476917
:100D1000007B80072ED03846FFF75AFD50BB3EB30C
:100D2000012E02D0022E25D104E0204600F025F944
:100D300005441DE03846FFF759FDE168002841F001
:100D40001001E16005DA204600F058F80120BDE806
:100D5000F081C9030BD56268E16A914200D811465F
:100D6000A26911442269891A814200DD08460544BE
:100D7000002D01DA0220EAE7E16A6068E268814258
:100D800006D29103E06203D522F4003141F0100253
:100D9000A6690027AE4213DCE16A814201D90B4605
:100DA00000E0034603EB060C2369ACEB030CAC45F7
:100DB00006DD814201D98C4600E084469C4505D180
:100DC000A760276042F02000A5620DE0AD1BE66938
:100DD000AE1B8142A66000D90846C01A281A2060BE
:100DE0005819606022F0200003490840E0600020AC
:100DF00084F84870ABE70000BFCFD7FFC16821F48B
:100E0000001141F08001C1600021816001607047E4
:100E10002DE9F047814614460E464FF0FF38324820
:100E2000D5685769054209D03846A169FFF7D6FC55
:100E3000002811DB2C48C0430540E5602B463246B4
:100E400049463846FFF7B5FCA16920F00042B21AC6
:100E500011440028A16103D02046FFF7CFFF404690
:100E6000BDE8F08770B504460569C06A61688842CC
:100E700000D80846E16821F42011E160C90312D5C9
:100E8000A84208D02246411B2846FFF7C1FF10B1F7
:100E90004FF0FF3070BD0020E562C4E90150E0680A
:100EA00020F48030E060002070BD10B50446C068BA
:100EB00020F02000E060A16AA06988420DD02046A1
:100EC000FFF7D0FFE06820F4405040F01000E060F1
:100ED000A06AA0612069E062606044F24001E068BD
:100EE0008843E06010BD000010000200002801D01F
:100EF00000F01CB87047000010B5014602A000F0D9
:100F00005DF8012010BD000053494752545245443A
:100F10003A2052656469726563743A2063616E2792
:100F200074206F70656E3A2000000000014918209F
:100F3000ABBEFEE72600020000210160C0E90110FF
:100F4000704710207047034640688C46002818BF41
:100F500088423CBF03464068F8D31868184488426A
:100F600007D00CF1030020F00700001D411A521AAF
:100F70000146081D0A60FFF764BC10B50146C2684F
:100F8000900703D0900607D5886A0AE000F03EF883
:100F900001210160881E10BD8B69486818440B69E7
:100FA000C01A91F848301BB191F84910401A10BD91
:100FB0001103FCD50028FADD401E10BD70B50546B2
:100FC0000C460A2000E06D1C00F018F835B12878B6
:100FD0000028F8D102E0641C00F010F814B1207869
:100FE0000028F8D1BDE870400A2000F007B810B51D
:100FF00000F010F8BDE81040FFF778BF08B569466B
:101000008DF800000320ABBE08BD0000004870470B
:101010002804002010B5012805D0002103A0FFF707
:10102000CDFF012010BD09A1F8E700005349475248
:10103000544D454D3A204F7574206F6620686561A8
:1010400070206D656D6F7279000000003A20486570
:101050006170206D656D6F727920636F727275704B
:101060007465640000BFFEE77047F0B50A460021D2
:101070000023002400BF3DE0012505FA01F31568B7
:1010800005EA03049C4234D105684F000326BE40A4
:10109000B543056015794E00B540066835430560D7
:1010A0001579012D02D01579022D16D185684F00D2
:1010B0000326BE40B543856055794E00B54086682D
:1010C00035438560456801268E40B54345604568D7
:1010D00096798E40B6B235434560C5684F00032609
:1010E000BE40B543C560D5794E00B540C6683543AE
:1010F000C560491C1029BFD3F0BD4183704700BFB4
:10110000FEE700001CB50121202000F033F84FF469
:10111000C060009001208DF8040000208DF80600CA
:101120008DF8050001208DF8070069460448FFF797
:101130009CFF4FF4C0610248FFF7DFFF1CBD0000B9
:101140000014024010B54FF400710248FFF7D5FFBC
:1011500010BD00000014024010B54FF48061024839
:10116000FFF7CBFF10BD00000014024000BFFEE7F8
:101170007047000029B1064A12680243044B1A6006
:1011800004E0034A12688243014B1A607047000072
:10119000303802400CB500200190009034480068BF
:1011A00040F480303249086000BF3148006800F4E4
:1011B000003000900198401C0190009818B90198E7
:1011C000B0F5A04FF1D12A48006800F4003010B10A
:1011D0000120009001E0002000900098012846D1F5
:1011E00023484030006840F0805021494031086079
:1011F0002048006840F440401E4908601C48083000
:1012000000681B49083108600846006840F4004047
:1012100008600846006840F4A05008601648091F9E
:101220000860081F006840F08070091F086000BF58
:101230000F48006800F000700028F9D040F20570F7
:101240000E4908600A480830006820F00300084989
:10125000083108600846006840F00200086000BFDE
:1012600003480830006800F00C000828F8D10CBDD5
:10127000003802400070004019544007003C024012
:101280007047000010B51548006840F4700013491D
:1012900008601348006840F0010011490860002010
:1012A0000F49083108600E4800680E4908400C4993
:1012B00008600D48091D0860081F006820F48020A0
:1012C000091F0860002006490C310860FFF762FF23
:1012D0004FF0006001498039086010BD88ED00E0E2
:1012E00000380240FFFFF6FE1030002400BFFEE78A
:1012F0008A68002A01DCFFF7CBBA521E8A604A686E
:10130000C0B2531C4B6010707047FFF7FBFE03E048
:10131000FFF718FFFFF720FFFAE7000010B51B48A2
:10132000006818B101201A4908602DE00020184912
:10133000086018480068B0FA80F0C0F11F0404EBA0
:101340008400154951F8200008B1012000E0002078
:1013500028B940F6F62211A118A0FEF7F1FF04EB20
:1013600084010D4A02EB810041684968416000F147
:10137000080142688A4202D1416849684160416877
:10138000C968124A116000BF10BD0000380000207B
:101390002400002018000020480000202E2E5C2E83
:1013A0002E5C4672656552544F5376392E302E307E
:1013B0005C7461736B732E63000000004572726F82
:1013C000723A25732C25640D0A00000000000020ED
:1013D0004FF04070E1EE100A70473A7474003A74AE
:1013E00074003A7474000000081400080000002023
:1013F00048000000C4010008501400084800002004
:10140000400A0000E00100080000000000000000A9
:1014100000000000000000000000000000000000CC
:1014200000000000000000000000000000000000BC
:1014300000000000000000000000000000000000AC
:10144000000000000000000000000000000000009C
:0400000508000301EB
:00000001FF
